:020000040800F2
:1000000000500020719C0008695D00086F5D0008C9
:10001000755D00087B5D0008815D00080000000040
:10002000000000000000000000000000875D0008E4
:10003000895D0008000000008B5D00088D5D0008F0
:10004000B99C0008B99C0008B99C0008B99C00083C
:10005000B99C0008B99C0008B99C0008B99C00082C
:10006000B99C0008B99C0008B99C0008B99C00081C
:10007000458D0008B99C0008B99C0008B99C00088F
:10008000B99C0008B99C0008B99C0008B99C0008FC
:10009000A15D0008B99C0008B99C0008B99C000843
:1000A000B99C0008158E0008B99C0008B99C00088E
:1000B000B99C0008998E0008B99C0008B99C0008FA
:1000C000B99C0008B99C0008B99C0008B99C0008BC
:1000D000B99C000899960008B5960008B99C0008DC
:1000E000B99C0008B99C0008B99C000800000000F9
:1000F0000000000000000000000000000000000000
:0C01000000000000000000005FF808F1A3
:1001100010B5054C237833B9044B13B10448AFF341
:1001200000800123237010BDF801002000000000B2
:100130008CC0000808B5034B1BB103490348AFF35B
:10014000008008BD00000000FC0100208CC00008F9
:1001500081F0004102E000BF83F0004330B54FEA78
:1001600041044FEA430594EA050F08BF90EA020FE5
:100170001FBF54EA000C55EA020C7FEA645C7FEA78
:10018000655C00F0E2804FEA5454D4EB5555B8BF9B
:100190006D420CDD2C4480EA020281EA030382EA0C
:1001A000000083EA010180EA020281EA0303362D9E
:1001B00088BF30BD11F0004F4FEA01314FF4801C71
:1001C0004CEA113102D0404261EB410113F0004F83
:1001D0004FEA03334CEA133302D0524263EB43033A
:1001E00094EA050F00F0A780A4F10104D5F1200ED8
:1001F0000DDB02FA0EFC22FA05F2801841F1000133
:1002000003FA0EF2801843FA05F359410EE0A5F106
:1002100020050EF1200E012A03FA0EFC28BF4CF037
:10022000020C43FA05F3C01851EBE37101F00045ED
:1002300007D54FF0000EDCF1000C7EEB00006EEBFA
:100240000101B1F5801F1BD3B1F5001F0CD3490884
:100250005FEA30004FEA3C0C04F101044FEA4452DB
:1002600012F5800F80F09A80BCF1004F08BF5FEA62
:10027000500C50F1000041EB045141EA050130BD42
:100280005FEA4C0C404141EB010111F4801FA4F1E5
:100290000104E9D191F0000F04BF01460020B1FA3A
:1002A00081F308BF2033A3F10B03B3F120020CDA72
:1002B0000C3208DD02F1140CC2F10C0201FA0CF050
:1002C00021FA02F10CE002F11402D8BFC2F1200CB5
:1002D00001FA02F120FA0CFCDCBF41EA0C0190406B
:1002E000E41AA2BF01EB0451294330BD6FEA0404B4
:1002F0001F3C1CDA0C340EDC04F11404C4F120029F
:1003000020FA04F001FA02F340EA030021FA04F3B0
:1003100045EA030130BDC4F10C04C4F1200220FA07
:1003200002F001FA04F340EA0300294630BD21FA45
:1003300004F0294630BD94F0000F83F4801306BF0B
:1003400081F480110134013D4EE77FEA645C18BFFF
:100350007FEA655C29D094EA050F08BF90EA020F96
:1003600005D054EA000C04BF1946104630BD91EA8E
:10037000030F1EBF0021002030BD5FEA545C05D191
:100380004000494128BF41F0004130BD14F58004D0
:100390003CBF01F5801130BD01F0004545F0FE4144
:1003A00041F470014FF0000030BD7FEA645C1ABF79
:1003B000194610467FEA655C1CBF0B46024650EAB0
:1003C000013406BF52EA033591EA030F41F40021DC
:1003D00030BD00BF90F0000F04BF0021704730B562
:1003E0004FF4806404F132044FF000054FF0000137
:1003F00050E700BF90F0000F04BF0021704730B5F8
:100400004FF4806404F1320410F0004548BF4042CC
:100410004FF000013EE700BF42004FEAE2014FEA21
:1004200031014FEA02701FBF12F07F4393F07F4FFC
:1004300081F06051704732F07F4208BF704793F0FF
:100440007F4F04BF41F40021704730B54FF4607412
:1004500001F0004521F000411CE700BF50EA010215
:1004600008BF704730B54FF000050AE050EA0102BE
:1004700008BF704730B511F0004502D5404261EB2E
:1004800041014FF4806404F132045FEA915C3FF46F
:10049000D8AE4FF003025FEADC0C18BF03325FEA0C
:1004A000DC0C18BF033202EBDC02C2F1200300FABD
:1004B00003FC20FA02F001FA03FE40EA0E0021FAE2
:1004C00002F11444BDE600BF70B54FF0FF0C4CF4D0
:1004D000E06C1CEA11541DBF1CEA135594EA0C0F82
:1004E00095EA0C0F00F0DEF82C4481EA030621EABD
:1004F0004C5123EA4C5350EA013518BF52EA0335F8
:1005000041F4801143F4801338D0A0FB02CE4FF0A9
:100510000005E1FB02E506F00042E0FB03E54FF0D9
:100520000006E1FB03569CF0000F18BF4EF0010ED1
:10053000A4F1FF04B6F5007F64F5407404D25FEACD
:100540004E0E6D4146EB060642EAC62141EA555180
:100550004FEAC52040EA5E504FEACE2EB4F1FD0CC2
:1005600088BFBCF5E06F1ED8BEF1004F08BF5FEA40
:10057000500E50F1000041EB045170BD06F00046F2
:1005800046EA010140EA020081EA0301B4EB5C049F
:10059000C2BFD4EB0C0541EA045170BD41F4801197
:1005A0004FF0000E013C00F3AB8014F1360FDEBFBC
:1005B000002001F0004170BDC4F10004203C35DA98
:1005C0000C341BDC04F11404C4F1200500FA05F31B
:1005D00020FA04F001FA05F240EA020001F00042BC
:1005E00021F0004110EBD37021FA04F642EB060132
:1005F0005EEA430E08BF20EAD37070BDC4F10C045C
:10060000C4F1200500FA04F320FA05F001FA04F21F
:1006100040EA020001F0004110EBD37041F100010B
:100620005EEA430E08BF20EAD37070BDC4F1200516
:1006300000FA05F24EEA020E20FA04F301FA05F27E
:1006400043EA020321FA04F001F0004121FA04F226
:1006500020EA020000EBD3705EEA430E08BF20EAF6
:10066000D37070BD94F0000F0FD101F00046400030
:1006700041EB010111F4801F08BF013CF7D041EAB2
:10068000060195F0000F18BF704703F000465200B6
:1006900043EB030313F4801F08BF013DF7D043EA87
:1006A0000603704794EA0C0F0CEA135518BF95EA3D
:1006B0000C0F0CD050EA410618BF52EA4306D1D1C4
:1006C00081EA030101F000414FF0000070BD50EAE3
:1006D000410606BF1046194652EA430619D094EA6D
:1006E0000C0F02D150EA013613D195EA0C0F05D157
:1006F00052EA03361CBF104619460AD181EA0301AB
:1007000001F0004141F0FE4141F470014FF0000062
:1007100070BD41F0FE4141F4780170BD70B54FF0FD
:10072000FF0C4CF4E06C1CEA11541DBF1CEA13557D
:1007300094EA0C0F95EA0C0F00F0A7F8A4EB05045F
:1007400081EA030E52EA03354FEA013100F0888056
:100750004FEA03334FF0805545EA131343EA12631F
:100760004FEA022245EA111545EA10654FEA0026D4
:100770000EF000419D4208BF964244F1FD0404F58D
:10078000407402D25B084FEA3202B61A65EB0305E9
:100790005B084FEA32024FF480104FF4002CB6EBA6
:1007A000020E75EB030E22BFB61A754640EA0C0026
:1007B0005B084FEA3202B6EB020E75EB030E22BF66
:1007C000B61A754640EA5C005B084FEA3202B6EBA7
:1007D000020E75EB030E22BFB61A754640EA9C0066
:1007E0005B084FEA3202B6EB020E75EB030E22BF36
:1007F000B61A754640EADC0055EA060E18D04FEAF4
:10080000051545EA16754FEA06164FEAC30343EA93
:1008100052734FEAC2025FEA1C1CC0D111F4801F60
:100820000BD141EA00014FF000004FF0004CB6E759
:1008300011F4801F04BF01430020B4F1FD0C88BFF8
:10084000BCF5E06F3FF6AFAEB5EB030C04BFB6EB03
:10085000020C5FEA500C50F1000041EB045170BDF6
:100860000EF0004E4EEA113114EB5C04C2BFD4EB23
:100870000C0541EA045170BD41F480114FF0000EA7
:10088000013C90E645EA060E8DE60CEA135594EA23
:100890000C0F08BF95EA0C0F3FF43BAF94EA0C0F26
:1008A0000AD150EA01347FF434AF95EA0C0F7FF49B
:1008B00025AF104619462CE795EA0C0F06D152EAEF
:1008C00003353FF4FDAE1046194622E750EA4106D3
:1008D00018BF52EA43067FF4C5AE50EA41047FF4E4
:1008E0000DAF52EA43057FF4EBAE12E74FF0FF3C49
:1008F00006E000BF4FF0010C02E000BF4FF0010C1A
:100900004DF804CD4FEA410C7FEA6C5C4FEA430C92
:1009100018BF7FEA6C5C1BD001B050EA410C0CBFE1
:1009200052EA430C91EA030F02BF90EA020F002043
:10093000704710F1000F91EA030F58BF994208BFAA
:1009400090422CBFD8176FEAE37040F00100704767
:100950004FEA410C7FEA6C5C02D150EA013C07D1BE
:100960004FEA430C7FEA6C5CD6D152EA033CD3D009
:100970005DF8040B704700BF8446104662468C4603
:100980001946634600E000BF01B5FFF7B7FF002836
:1009900048BF10F1000F01BD4DF808EDFFF7F4FF5F
:1009A0000CBF012000205DF808FB00BF4DF808EDEA
:1009B000FFF7EAFF34BF012000205DF808FB00BF0D
:1009C0004DF808EDFFF7E0FF94BF012000205DF82F
:1009D00008FB00BF4DF808EDFFF7CEFF94BF0120E4
:1009E00000205DF808FB00BF4DF808EDFFF7C4FFDD
:1009F00034BF012000205DF808FB00BF4FEA410C26
:100A00007FEA6C5C02D150EA013C0AD14FEA430C08
:100A10007FEA6C5C02D152EA033C02D14FF0000045
:100A200070474FF0010070474FEA410212F5001283
:100A300015D211D56FF47873B3EB625212D94FEA25
:100A4000C12343F0004343EA505311F0004F23FA0F
:100A500002F018BF404270474FF00000704750EA64
:100A6000013005D111F0004008BF6FF00040704721
:100A70004FF00000704700BF4FEA4102B2F1E0437F
:100A800024BFB3F5001CDCF1FE5C0DD901F0004C75
:100A90004FEAC0024CEA5070B2F1004F40EB8300C5
:100AA00008BF20F00100704711F0804F21D113F1F1
:100AB0003872BCBF01F00040704741F480114FEA2A
:100AC0005252C2F11802C2F1200C10FA0CF320FAB3
:100AD00002F018BF40F001004FEAC1234FEAD323D0
:100AE00003FA0CFC40EA0C0023FA02F34FEA43033A
:100AF000CCE77FEA625307D150EA01331EBF4FF0C3
:100B0000FE4040F44000704701F0004040F0FE40DD
:100B100040F40000704700BF80F0004002E000BFDA
:100B200081F0004142001FBF5FEA410392EA030FD8
:100B30007FEA226C7FEA236C6AD04FEA1262D2EB22
:100B40001363C1BFD218414048404140B8BF5B4227
:100B5000192B88BF704710F0004F40F4000020F0C0
:100B60007F4018BF404211F0004F41F4000121F0D6
:100B70007F4118BF494292EA030F3FD0A2F1010220
:100B800041FA03FC10EB0C00C3F1200301FA03F15E
:100B900000F0004302D5494260EB4000B0F5000F81
:100BA00013D3B0F1807F06D340084FEA310102F140
:100BB0000102FE2A51D2B1F1004F40EBC25008BFF2
:100BC00020F0010040EA03007047490040EB0000BC
:100BD00010F4000FA2F10102EDD1B0FA80FCACF1EB
:100BE000080CB2EB0C0200FA0CF0AABF00EBC250EA
:100BF00052421843BCBFD0401843704792F0000FD8
:100C000081F4000106BF80F400000132013BB5E72A
:100C10004FEA41037FEA226C18BF7FEA236C21D0A0
:100C200092EA030F04D092F0000F08BF0846704705
:100C300090EA010F1CBF0020704712F07F4F04D1D3
:100C4000400028BF40F00040704712F100723CBFE6
:100C500000F50000704700F0004343F0FE4040F410
:100C6000000070477FEA226216BF08467FEA2363CE
:100C70000146420206BF5FEA412390EA010F40F4B9
:100C8000800070474FF0000304E000BF10F0004305
:100C900048BF40425FEA000C08BF704743F09643EC
:100CA00001464FF000001CE050EA010208BF704707
:100CB0004FF000030AE000BF50EA010208BF70478E
:100CC00011F0004302D5404261EB41015FEA010CA3
:100CD00002BF84460146002043F0B64308BFA3F19B
:100CE0008053A3F50003BCFA8CF2083AA3EBC2537D
:100CF00010DB01FA02FC634400FA02FCC2F120029C
:100D0000BCF1004F20FA02F243EB020008BF20F0D2
:100D10000100704702F1200201FA02FCC2F1200238
:100D200050EA4C0021FA02F243EB020008BF20EA2D
:100D3000DC7070474FF0FF0C1CEAD0521EBF1CEA5B
:100D4000D15392EA0C0F93EA0C0F6FD01A4480EA49
:100D5000010C400218BF5FEA41211ED04FF0006332
:100D600043EA501043EA5111A0FB01310CF000405E
:100D7000B1F5000F3EBF490041EAD3715B0040EA84
:100D8000010062F17F02FD2A1DD8B3F1004F40EB54
:100D9000C25008BF20F00100704790F0000F0CF027
:100DA000004C08BF49024CEA502040EA51207F3AEB
:100DB000C2BFD2F1FF0340EAC250704740F40000C6
:100DC0004FF00003013A5DDC12F1190FDCBF00F0B7
:100DD00000407047C2F10002410021FA02F1C2F165
:100DE000200200FA02FC5FEA310040F1000053EA01
:100DF0004C0308BF20EADC70704792F0000F00F04F
:100E0000004C02BF400010F4000F013AF9D040EA54
:100E10000C0093F0000F01F0004C02BF490011F4E8
:100E2000000F013BF9D041EA0C018FE70CEAD153E6
:100E300092EA0C0F18BF93EA0C0F0AD030F0004C66
:100E400018BF31F0004CD8D180EA010000F000401A
:100E5000704790F0000F17BF90F0004F084691F0D8
:100E6000000F91F0004F14D092EA0C0F01D1420212
:100E70000FD193EA0C0F03D14B0218BF084608D1DB
:100E800080EA010000F0004040F0FE4040F4000025
:100E9000704740F0FE4040F4400070474FF0FF0CB8
:100EA0001CEAD0521EBF1CEAD15392EA0C0F93EAFF
:100EB0000C0F69D0A2EB030280EA010C49024FEA51
:100EC000402037D04FF0805343EA111143EA10130A
:100ED0000CF000408B4238BF5B0042F17D024FF4C2
:100EE000000C8B4224BF5B1A40EA0C00B3EB510F9D
:100EF00024BFA3EB510340EA5C00B3EB910F24BF86
:100F0000A3EB910340EA9C00B3EBD10F24BFA3EB0A
:100F1000D10340EADC001B0118BF5FEA1C1CE0D1D2
:100F2000FD2A3FF650AF8B4240EBC25008BF20F085
:100F3000010070470CF0004C4CEA50207F32C2BFD9
:100F4000D2F1FF0340EAC250704740F400004FF076
:100F50000003013A37E792F0000F00F0004C02BFA7
:100F6000400010F4000F013AF9D040EA0C0093F071
:100F7000000F01F0004C02BF490011F4000F013BCB
:100F8000F9D041EA0C0195E70CEAD15392EA0C0F33
:100F900008D142027FF47DAF93EA0C0F7FF470AF6B
:100FA000084676E793EA0C0F04D14B023FF44CAFAE
:100FB00008466EE730F0004C18BF31F0004CCAD143
:100FC00030F000427FF45CAF31F000437FF43CAF7F
:100FD0005FE700BF4FF0FF3C06E000BF4FF0010CA1
:100FE00002E000BF4FF0010C4DF804CD4FEA400283
:100FF0004FEA41037FEA226C18BF7FEA236C11D0CD
:1010000001B052EA530C18BF90EA010F58BFB2EB7F
:10101000030088BFC81738BF6FEAE17018BF40F0FF
:10102000010070477FEA226C02D15FEA402C05D1B3
:101030007FEA236CE4D15FEA412CE1D05DF8040B38
:10104000704700BF844608466146FFE70FB5FFF7CB
:10105000C9FF002848BF10F1000F0FBD4DF808ED83
:10106000FFF7F4FF0CBF012000205DF808FB00BF74
:101070004DF808EDFFF7EAFF34BF012000205DF8CE
:1010800008FB00BF4DF808EDFFF7E0FF94BF01201B
:1010900000205DF808FB00BF4DF808EDFFF7D2FF18
:1010A00094BF012000205DF808FB00BF4DF808ED5B
:1010B000FFF7C8FF34BF012000205DF808FB00BF28
:1010C0004FEA40024FEA41037FEA226C02D15FEA15
:1010D000402C08D17FEA236C02D15FEA412C02D177
:1010E0004FF0000070474FF0010070474FEA400298
:1010F000B2F1FE4F0FD34FF09E03B3EB12620DD946
:101100004FEA002343F0004310F0004F23FA02F0AF
:1011100018BF404270474FF00000704712F1610F56
:1011200001D1420205D110F0004008BF6FF000402D
:1011300070474FF00000704742000ED2B2F1FE4FF0
:101140000BD34FF09E03B3EB126209D44FEA002396
:1011500043F0004323FA02F070474FF0000070475D
:1011600012F1610F01D1420202D14FF0FF307047FE
:101170004FF00000704700BFF8B50022002307467B
:101180000E46FFF713FC28B938463146BDE8F84053
:1011900000F00AB8384606F1004100F005F8404278
:1011A00061EB4101F8BD00BFD0B500220D4B0646F2
:1011B0000F46FFF789F900F019F80446FFF70AF91E
:1011C0000022094BFFF780F902460B4630463946AC
:1011D000FEF7C2FF00F00AF800222346104319462A
:1011E000D0BD00BF0000F03D0000F0414A0011D228
:1011F00012F5001211D20DD56FF47873B3EB625271
:101200000ED44FEAC12343F0004343EA505323FA7C
:1012100002F070474FF00000704750EA013002D1F1
:101220004FF0FF3070474FF000007047034613F84F
:10123000012B002AFBD1181A0138704710B504465B
:101240000E4B18784FF47A73B3FBF0F30C4A106826
:10125000B0FBF3F000F08EF868B90F2C01D9012033
:101260000AE0002221464FF0FF3000F041F8034B26
:101270005C60002000E0012010BD00BF00000020E5
:101280002C01002008B5074A136843F010031360CF
:10129000032000F01BF80020FFF7D0FF04F030FD22
:1012A000002008BD00200240034A1168034B1B7850
:1012B0000B441360704700BF900400200000002022
:1012C000014B1868704700BF90040020074AD3689C
:1012D00023F4E0631B041B0C000200F4E0601843DD
:1012E00040F0BF6040F40030D060704700ED00E097
:1012F00030B4174BDB68C3F30223C3F10704042C9B
:1013000028BF04241D1D062D18D9033B4FF0FF35BF
:1013100005FA04F421EA0401994005FA03F322EAEC
:101320000303194300280BDB0901C9B200F1604037
:1013300000F5614080F8001330BC70470023E5E7FA
:1013400000F00F000901C9B2024B1954F4E700BFC5
:1013500000ED00E014ED00E0002807DB00F01F02C4
:10136000400901239340024A42F82030704700BFF1
:1013700000E100E00138B0F1807F0AD2064B5860EE
:10138000064AF02182F823100020986007221A6094
:1013900070470120704700BF10E000E000ED00E062
:1013A000F0B587B0002873D0044690F82932D3B145
:1013B000032384F82932206800F0DBFF254655F826
:1013C000107B6E460FCD0FC62B683360231D0ECBEE
:1013D000384600F0BFFF58B1022384F829320125B6
:1013E000284607B0F0BD80F8283207F0C9F8DFE7DB
:1013F0000021206800F0C7FF002311E004EB431236
:10140000012182F8291082F82830D386002182F841
:101410002B109163D1639A1C5201A1500133DBB2AE
:1014200060688342EAD3002312E004EB43110022F8
:1014300081F8292181F8283181F82B21C1F8382140
:10144000C1F83C2103F10A01490162500133DBB2CA
:101450009842EAD8254655F8107B6E460FCD0FC648
:101460002B683360231D0ECB384600F08EFF0546F7
:1014700020B1022384F829320125B1E7002384F842
:101480002430012384F82932206801F0B0FAA7E75C
:101490000125A5E790F82832012B10D010B504469D
:1014A000012180F8281207F076F9206801F09DFAF2
:1014B000206800F056FF002084F8280210BD0220AA
:1014C000704790F82832012B0DD010B50446012347
:1014D00080F8283280F82410006801F080FA00209B
:1014E00084F8280210BD0220704770B511F0800FFB
:1014F00023D101F007056D0105F5947404440544FA
:10150000002685F8296101F0070121702261E3704E
:10151000627802B1E181022B1AD090F82832012BB7
:1015200019D00546012380F828322146006800F0D2
:1015300042FF002085F8280270BD01F007056D010B
:1015400005F1280404440544012685F82960DAE7FA
:1015500000232371E1E70220EEE710B511F0800FC0
:101560001CD101F007035B0103F5947202440344AC
:10157000002483F8294101F00703137090F8283202
:10158000012B16D00446012380F82832114600684A
:1015900001F0C5F8002084F8280210BD01F007030F
:1015A0005B0103F1280202440344012483F829402B
:1015B000E1E70220F1E770B501F007056C0104F5E1
:1015C000947101440444C4F83C2105F10A0252011B
:1015D000861883500023736084F8293184F82851D9
:1015E00025B1006801F01FFA002070BD006801F00D
:1015F0001AFAF9E701F007010A3100EB41114868D6
:10160000704770B501F007056C0104F12801014431
:101610000444E263AA1C52018618835000237360BD
:10162000012384F8293084F8285025B1006801F09E
:10163000FAF9002070BD006801F0F5F9F9E7F8B596
:1016400004462068B0F8443013F4004F00F0AD8138
:10165000B0F844309BB213F00F0540F0CD8013F08A
:10166000100F58D003889BB213F4006F40F08980AC
:1016700013F4004FE5D0038823F070031B051B0D06
:1016800043F0800303802068B0F8503094F828219C
:1016900003EBC203063300EB4303B3F80034C3F398
:1016A0000903C4F844318BB1D4F83C1171B1B4F8DA
:1016B0002E2101F048FBD4F84421D4F83C311344E6
:1016C000C4F83C310021204606F082FF2368B3F8BD
:1016D00050201344D4F83821002A74D1B3F80C24D4
:1016E00092B222F4F84292B2A3F80C24B3F80C247C
:1016F00042F40042A3F80C24226813889BB223F41E
:10170000804323F0700383F4405343F4004343F0D9
:101710008003138095E703889BB223F4E14323F011
:1017200070036FEA43436FEA53439BB2038022681E
:10173000B2F8503094F8281003EBC103023302EBE7
:101740004303B3F80034C3F309036364E26B134447
:10175000E3630021204606F045FF94F82430002B77
:101760003FF46FAF236C002B7FF46BAF94F8243001
:10177000226843F08003A2F84C30002384F8243020
:101780005FE7B0F8503094F8282103EBC20306332A
:1017900000EB4303B3F80034C3F30903C4F8443146
:1017A000B4F82E2104F50C7101F0CDFA22681388EB
:1017B00023F070031B051B0D43F0800313802046AC
:1017C00006F0FEFE3DE73E2A09D8510812F0010F4F
:1017D00000D00131890289B2A3F80C148CE75109B9
:1017E00012F01F0F00D101396FEAC1626FEA524255
:1017F00092B2A3F80C247FE730F82560B6B216F455
:10180000004F33D116F0800F3FF41BAF226832F83F
:1018100025309BB223F4E14323F070036FEA434386
:101820006FEA53439BB222F825302268B2F8503059
:1018300004EB451090F8281003EBC103023302EBD0
:101840004303B3F80024C2F30902AB1C5B01E118A7
:101850004A60C16B0A44C263E358002B40F09D808C
:1018600090F82810204606F0BDFEEAE630F8253054
:1018700023F070031B051B0D43F0800320F8253077
:1018800004EB451393F83431D3B92068B0F85030E5
:1018900004EB451292F8282103EBC203063300EB58
:1018A0004303B3F80074C7F309078FB304EB451182
:1018B0003B46B1F82E21D1F83C1101F044FA27E063
:1018C000206804EB451393F8282130F8223013F4F4
:1018D000804F43D0B0F8503003EBC203023300EB2B
:1018E0004303B3F80074C7F309076FBB226804EB26
:1018F000451393F8281132F821309BB223F4E043CA
:1019000023F0700343F4004343F0C00322F8213076
:1019100005F10A035B01E1184A683A444A6004EBA6
:101920004511D1F83C213A44C1F83C21E3581BB1A0
:10193000D1F838118F4228D204EB451393F82811BF
:10194000204606F045FE5DE704EB45113B46B1F845
:101950003021D1F83C1101F0F6F9C7E7B0F850306A
:1019600003EBC203063300EB4303B3F80074C7F381
:101970000907002FBAD004EB45113B46B1F83221DC
:10198000D1F83C1101F0DFF9B0E704EB451191F813
:1019900028112046FFF70FFE34E704EB451595F8B4
:1019A00028102046FFF72DFE4BE60020F8BD10B5AD
:1019B0000446006801F01DF810F4004F45D120687E
:1019C00001F017F810F4806F43D1206801F011F88E
:1019D00010F4804F08D02268B2F844309BB223F450
:1019E00080439BB2A2F84430206801F002F810F462
:1019F000005F08D02268B2F844309BB223F4005351
:101A00009BB2A2F84430206800F0F3FF10F4805F2E
:101A100030D1206800F0EDFF10F4006F49D120684C
:101A200000F0E7FF10F4007F6DD1206800F0E1FFC7
:101A300010F4807F08D02268B2F844309BB223F4BF
:101A400080739BB2A2F8443010BD2046FFF7F7FD2B
:101A5000B5E72268B2F844309BB223F480639BB2AE
:101A6000A2F84430204606F0CCFD00212046FFF7C6
:101A700028FDAAE72268B2F840309BB223F00403A5
:101A80009BB2A2F840302268B2F840309BB223F0FB
:101A900008039BB2A2F84030204606F0D3FD22682E
:101AA000B2F844309BB223F480539BB2A2F8443086
:101AB000AFE72268B2F8403043F00803A2F84030A4
:101AC0002268B2F844309BB223F400639BB2A2F8C0
:101AD00044302268B2F8403043F00403A2F84030AA
:101AE000206800F086FF10F4805F08D02268B2F80A
:101AF00044309BB223F480539BB2A2F8443020467A
:101B000006F090FD8BE72268B2F844309BB223F4D4
:101B100000739BB2A2F84430204606F06CFD84E7C7
:101B200038B501F0070543689D422CD811F0800FAD
:101B30001AD14B0103F5947101440344002283F848
:101B4000292101238B700D7090F82832012B1CD0B5
:101B50000446012380F82832006800F0CAFE65B10F
:101B6000002084F828020FE06B0103F128010144F2
:101B70000344012283F82920E3E704F50C7120686F
:101B800000F03AFFECE7012038BD0220FCE701F04D
:101B90000F0243689A422DD810B511F0800F1ED164
:101BA00001F007035B0103F594720244034400242F
:101BB00083F829410023937001F00703137090F814
:101BC0002832012B18D00446012380F82832114610
:101BD000006800F0B3FE002084F8280210BD01F078
:101BE00007035B0103F1280202440344012483F844
:101BF0002940DFE7012070470220EFE711F0800F56
:101C00000CD001F007014901283101445AB10122E9
:101C10000A730B811B0C4B8100207047490101F5B1
:101C200094710144F2E70A73CB80F5E782B0084B68
:101C30001B68084AA2FB03235B0A00FB03F0019028
:101C400000BF019B5A1E0192002BF9D102B07047D0
:101C50002C010020D34D6210002800F0F58170B5F2
:101C600082B00446036813F0010F2CD0AB4B5B68C5
:101C700003F00C03042B1DD0A84B5B6803F00C038E
:101C8000082B12D06368B3F5803F41D0002B55D1AB
:101C900003F1804303F504331A6822F480321A609A
:101CA0001A6822F480221A6037E09C4B5B6813F4B8
:101CB000803FE7D0994B1B6813F4003F03D0636863
:101CC000002B00F0C381236813F0020F76D0934BF2
:101CD0005B6813F00C0F5FD0904B5B6803F00C0354
:101CE000082B54D02369002B00F08A808C4B0122F2
:101CF0001A60FFF7E5FA0546884B1B6813F0020FE0
:101D000075D1FFF7DDFA401B0228F5D90320A0E1C9
:101D1000824A136843F480331360636843B3FFF768
:101D2000CFFA05467D4B1B6813F4003FCBD1FFF77C
:101D3000C7FA401B6428F5D903208AE1B3F5A02F28
:101D400009D0764B1A6822F480321A601A6822F49D
:101D500080221A60E1E703F18043A3F53C331A685F
:101D600042F480221A601A6842F480321A60D4E782
:101D7000FFF7A6FA0546694B1B6813F4003FA2D093
:101D8000FFF79EFA401B6428F5D9032061E1634BFD
:101D90005B6813F4803FA5D1604B1B6813F0020F02
:101DA00004D02369012B01D0012052E15B4A136862
:101DB00023F0F803616943EAC1031360236813F059
:101DC000080F32D0A369002B5BD0564B01221A605A
:101DD000FFF776FA0546514B5B6A13F0020F21D1EB
:101DE000FFF76EFA401B0228F5D9032031E14B4A78
:101DF000136823F0F803616943EAC1031360DDE768
:101E0000474B00221A60FFF75BFA0546434B1B68FD
:101E100013F0020FD2D0FFF753FA401B0228F5D976
:101E2000032016E10120FFF701FF236813F0040FE0
:101E300000F09880394BDB6913F0805F33D1374B6A
:101E4000DA6942F08052DA61DB6903F08053019372
:101E5000019B0125344B1B6813F4807F25D0E36878
:101E6000012B36D0002B4CD103F1804303F5043312
:101E70001A6A22F001021A621A6A22F004021A6235
:101E80002CE0284B00221A60FFF71AFA0546234B74
:101E90005B6A13F0020FC8D0FFF712FA401B02284A
:101EA000F5D90320D5E00025D4E71F4A136843F491
:101EB00080731360FFF704FA06461B4B1B6813F48C
:101EC000807FCCD1FFF7FCF9801B6428F5D9032073
:101ED000BFE0124A136A43F001031362E3687BB365
:101EE000FFF7EEF906460D4B1B6A13F0020F38D1CF
:101EF000FFF7E6F9801B41F288339842F3D90320BB
:101F0000A7E0052B12D0054B1A6A22F001021A62D3
:101F10001A6A22F004021A62E0E700BF00100240D1
:101F20000000424280044242007000404C4B1A6A5A
:101F300042F004021A621A6A42F001021A62CDE704
:101F4000FFF7BEF90646464B1B6A13F0020F08D096
:101F5000FFF7B6F9801B41F288339842F3D903208A
:101F600077E0E5B9E369002B72D03D4A526802F090
:101F70000C02082A56D0022B17D03A4B00221A60C6
:101F8000FFF79EF90446364B1B6813F0007F47D0DD
:101F9000FFF796F9001B0228F5D9032059E0304AD3
:101FA000D36923F08053D361DCE72E4B00221A6003
:101FB000FFF786F905462A4B1B6813F0007F06D011
:101FC000FFF77EF9401B0228F5D9032041E0236A80
:101FD000B3F5803F1AD022494B6823F47413226A68
:101FE000606A024313434B601E4B01221A60FFF7E5
:101FF00067F904461A4B1B6813F0007F0ED1FFF7F8
:102000005FF9001B0228F5D9032022E0144A536827
:1020100023F40033A1680B435360DCE7002018E091
:10202000002016E0012B16D00D4B5B6803F48031C5
:10203000226A914201D001200BE003F47013626A1E
:1020400093420AD0012004E001207047012000E003
:10205000002002B070BD0120FBE70020F9E700BFBF
:10206000001002406000424210B487B0164C94E861
:102070000F000DF1180C0CE90F00238AADF80430A5
:10208000124B5B6803F00C02082A1AD1C3F3834297
:10209000624412F8102C13F4803F05D10C4800FB69
:1020A00002F007B010BC7047084B5B68C3F34043B5
:1020B000634413F8143C074800FB02F0B0FBF3F054
:1020C000EFE70448EDE700BFA8C000080010024099
:1020D00000093D0000127A00002800F0A38070B5CE
:1020E0000446524B1B6803F007038B420CD24F4A45
:1020F000136823F007030B431360136803F007030F
:102100008B4201D0012070BD236813F0020F17D05D
:1021100013F0040F04D0464A536843F4E06353605D
:10212000236813F0080F04D0414A536843F4605306
:1021300053603F4A536823F0F003A06803435360A1
:102140000D46236813F0010F31D06368012B20D0B6
:10215000022B25D0364A126812F0020F64D034499F
:102160004A6822F0030213434B60FFF7A9F80646C2
:102170002F4B5B6803F00C036268B3EB820F16D041
:10218000FFF79EF8801B41F288339842F0D9032074
:10219000B9E7274A126812F4003FE0D10120B2E704
:1021A000234A126812F0007FD9D10120ABE71F4B00
:1021B0001B6803F00703AB420CD91C4A136823F0D9
:1021C00007032B431360136803F00703AB4201D0EE
:1021D000012098E7236813F0040F06D0144A5368CF
:1021E00023F4E063E1680B435360236813F0080FA6
:1021F00007D00F4A536823F46053216943EAC103AF
:102200005360FFF731FF0A4B5B68C3F30313094ABE
:10221000D35CD840084B1860084B1868FFF70EF8DD
:10222000002070E70120704701206CE70020024089
:1022300000100240BCC000082C0100200400002057
:1022400070B582B00446036813F0010F34D03E4BE2
:10225000DB6913F0805F48D13B4BDA6942F0805272
:10226000DA61DB6903F080530193019B0125374B51
:102270001B6813F4807F3AD0334B1B6A13F440730E
:1022800011D0626802F440729A420CD02E4A136A4E
:1022900023F440702E4901260E6000260E60106265
:1022A00013F0010F37D1284A136A23F44073616891
:1022B0000B431362002D3FD1236813F0020F06D0A9
:1022C000214A536823F44043A1680B4353602368B9
:1022D00013F0100F35D01C4A536823F48003E168D3
:1022E0000B435360002002B070BD0025BFE7174AC2
:1022F000136843F480731360FEF7E2FF0646134B46
:102300001B6813F4807FB7D1FEF7DAFF801B6428C7
:10231000F5D90320E7E7FEF7D3FF06460A4B1B6A11
:1023200013F0020FBFD1FEF7CBFF801B41F28833C1
:102330009842F3D90320D6E7D36923F08053D361C1
:10234000BAE70020CFE700BF001002400070004055
:102350004004424284B001A880E80E00002004B08E
:102360007047B0F8403043F43F43A0F840300020BD
:102370007047B0F8403023F47C535B045B0CA0F84A
:102380004030002070470020704784B038B505AC5D
:1023900084E80E000123A0F840300024A0F840405B
:1023A000A0F84440A0F85040FFF7DBFF2046BDE80E
:1023B000384004B0704730B403460C7830F824201D
:1023C00092B222F4EC4222F0700292B2C878032852
:1023D0005AD8DFE800F04D550251002048F2800540
:1023E0002A4323F824200C7833F8242092B222F4D4
:1023F000E04222F0700222432A4323F824200A7B81
:10240000002A40F0B1804A78002A4ED0B3F850201C
:102410001A440C7802EB0412CC8864086400A2F819
:1024200000440C7833F8242012F0400F0CD033F81D
:10243000242092B222F4E04222F0700242F40042E0
:1024400042F0C00223F82420CA78012A1ED009785D
:1024500033F8212092B222F4E04222F0400282F0CE
:10246000200242F4004242F0800223F8212060E082
:1024700042F400720020B1E742F4C0620020ADE7F0
:1024800042F480620020A9E70120A7E7097833F829
:10249000212092B222F4E04222F0400242F40042B3
:1024A00042F0800223F8212043E0B3F850201A4480
:1024B0000C7802EB0412CC8864086400A2F808448B
:1024C000B3F850201A440C7802EB04120C6994BB48
:1024D000B2F80C44A4B224F4F844A4B2A2F80C4418
:1024E000B2F80C4444F40044A2F80C440C7833F8DD
:1024F000242012F4804F0CD033F8242092B222F41E
:10250000E04222F0700242F4404242F0800223F89E
:102510002420097833F8212092B222F4804222F05C
:10252000700282F4405242F4004242F0800223F8EA
:10253000212030BC70473E2C09D8650814F0010FEB
:1025400000D00135AD02ADB2A2F80C54CEE765095A
:1025500014F01F0F00D1013D6FEAC5646FEA5444C7
:10256000A4B2A2F80C44C1E70C7833F8242092B24C
:1025700022F4E04222F0700242F4014242F0800272
:1025800023F82420B3F850201A440C7802EB0412EC
:102590000C8964086400A2F80044B3F850201A447F
:1025A0000C7802EB04124C8964086400A2F8084419
:1025B0004A78002A4ED10C7833F8242012F4804F48
:1025C0000CD033F8242092B222F4E04222F07002C0
:1025D00042F4404242F0800223F824200C7833F881
:1025E000242012F0400F0CD033F8242092B222F4B1
:1025F000E04222F0700242F4004242F0C00223F8AE
:1026000024200C7833F8242092B222F4E04222F005
:10261000700242F4004242F0C00223F824200D78F8
:1026200033F8252092B222F4804222F0700282F424
:10263000405248F28004224323F82520097833F8D9
:10264000212092B222F4E04222F04002224323F8F9
:1026500021206EE70C7833F8242012F4804F0CD040
:1026600033F8242092B222F4E04222F0700242F4C5
:10267000404242F0800223F824200C7833F82420D2
:1026800012F0400F0CD033F8242092B222F4E04232
:1026900022F0700242F4004242F0C00223F82420EB
:1026A0000C7833F8242092B222F4E04222F0700237
:1026B00042F4404242F0800223F82420CA78012AE2
:1026C0001ED00C7833F8242092B222F4E04222F09B
:1026D000400282F0200242F4004242F0800223F8DD
:1026E0002420097833F8212092B222F4804222F08B
:1026F000700242F4004242F0800223F8212018E7E1
:102700000C7833F8242092B222F4E04222F0400206
:1027100042F4004242F0800223F82420E1E70B7BE0
:10272000002B46D14B7813B30A7830F8223013F0DF
:10273000400F0CD030F822309BB223F4E04323F05A
:10274000700343F4004343F0C00320F822300A78BA
:1027500030F822309BB223F4E04323F0400343F4EB
:10276000004343F0800320F82230002070470A78AD
:1027700030F8223013F4804F0CD030F822309BB266
:1027800023F4E04323F0700343F4404343F0800319
:1027900020F822300A7830F822309BB223F48043AC
:1027A00023F0700343F4004343F0800320F8223009
:1027B000DBE710B44B78002B4ED10A7830F822308A
:1027C00013F4804F0CD030F822309BB223F4E04356
:1027D00023F0700343F4404343F0800320F8223099
:1027E0000A7830F8223013F0400F0CD030F8223045
:1027F0009BB223F4E04323F0700343F4004343F01F
:10280000C00320F822300A7830F822309BB223F43B
:10281000E04323F0700343F4004343F0C00320F887
:1028200022300B7830F8232092B222F4804222F03A
:10283000700248F28004224320F823200A7830F8FE
:1028400022309BB223F4E04323F04003234320F8DB
:102850002230002010BC70470A7830F8223013F480
:10286000804F0CD030F822309BB223F4E04323F0A9
:10287000700343F4404343F0800320F822300A7889
:1028800030F8223013F0400F0CD030F822309BB2D9
:1028900023F4E04323F0700343F4004343F0C00308
:1028A00020F822300A7830F822309BB223F4E0433B
:1028B00023F0700343F4404343F0800320F82230B8
:1028C0000B7830F8232092B222F4E04222F040024A
:1028D00048F28004224320F823200A7830F822307E
:1028E0009BB223F4804323F07003234320F822306B
:1028F000AFE74B788BB90A7830F822309BB223F4DB
:10290000804323F0700383F4805343F4004343F087
:10291000800320F82230002070470A7830F82230F7
:102920009BB223F4E04323F0400383F0100343F40D
:10293000004343F0800320F82230ECE70B7B002BB0
:102940004BD14B7833B30A7830F8223013F0400F74
:102950000CD030F822309BB223F4E04323F0700314
:1029600043F4004343F0C00320F82230CB78012B1E
:1029700033D00A7830F822309BB223F4E04323F0BE
:10298000400383F0200343F4004343F0800320F826
:10299000223022E00A7830F8223013F4804F0CD035
:1029A00030F822309BB223F4E04323F0700343F469
:1029B000404343F0800320F822300A7830F8223078
:1029C0009BB223F4804323F0700383F4405343F419
:1029D000004343F0800320F822300020704711B9F3
:1029E0008023A0F84C300020704700207047002062
:1029F0007047B0F8440070470020704701335B080F
:102A000000EB420202F5806263B110B40C784878A2
:102A100044EA002422F8044B0231013B002BF5D19B
:102A200010BC7047704770B54E78012E33D08A695C
:102A30000B699A4240F2FC80D21A8A610A7B002A12
:102A400040F01381B0F8502002440C7802EB0412DD
:102A5000002B40F0F180B2F80C349BB223F4F84321
:102A60009BB2A2F80C34B2F80C3443F40043A2F841
:102A70000C340A7830F822309BB223F4804323F0E0
:102A8000700383F4405343F4004343F0800320F881
:102A90002230002070BD8A690B699A4222D9D21A6D
:102AA0008A610C4605460A7B02B30A7830F8221088
:102AB00011F0400F72D0002E40D1B0F850100144F8
:102AC00001EB02120BBBB2F80C1489B221F4F841ED
:102AD00089B2A2F80C14B2F80C1441F40041A2F827
:102AE0000C1433E000238B611346DAE79EB23346C1
:102AF000CA884969FFF782FFB5F850302B44227825
:102B000003EB0213A3F8046437E03E2B09D85908FD
:102B100013F0010F00D00131890289B2A2F80C1420
:102B200014E0590913F01F0F00D101396FEAC16198
:102B30006FEA514189B2A2F80C1407E0B0F85010C6
:102B4000014401EB021299B2A2F80C1462899BB203
:102B500061692846FFF752FF6378002B57D122782E
:102B600035F822309BB223F4E04323F0700343F4A2
:102B7000004343F0C00325F82230227835F8223094
:102B80009BB223F4E04323F0400383F0300343F48B
:102B9000004343F0800325F822307AE76EBBB0F89B
:102BA0005010014401EB021273B9B2F8041489B257
:102BB00021F4F84189B2A2F80414B2F8041441F4E3
:102BC0000041A2F8041420E03E2B09D8590813F064
:102BD000010F00D00131890289B2A2F8041414E077
:102BE000590913F01F0F00D101396FEAC1616FEA73
:102BF000514189B2A2F8041407E0B0F85010014422
:102C000001EB021299B2A2F8041422899FE7012B6A
:102C1000B3D1227835F822309BB223F4E04323F07D
:102C2000700343F4404343F0800325F82230A4E7C7
:102C300000238B61134601E73E2B09D85C0813F093
:102C4000010F00D00134A402A4B2A2F80C4410E792
:102C50005C0913F01F0F00D1013C6FEAC4646FEAF6
:102C60005444A4B2A2F80C4403E7A6B9B0F850202B
:102C700002440C7802EB041233BBB2F80444A4B251
:102C800024F4F844A4B2A2F80444B2F8044444F48E
:102C90000044A2F804444A78002A47D1B0F85020F2
:102CA00002440C7802EB04123BBBB2F80C349BB22A
:102CB00023F4F8439BB2A2F80C34B2F80C3443F47A
:102CC0000043A2F80C34D4E63E2B09D85C0813F07C
:102CD000010F00D00134A402A4B2A2F80444DAE740
:102CE0005C0913F01F0F00D1013C6FEAC4646FEA66
:102CF0005444A4B2A2F80444CDE73E2B09D85C08A2
:102D000013F0010F00D00134A402A4B2A2F80C44C5
:102D1000AFE65C0913F01F0F00D1013C6FEAC463FA
:102D20006FEA53439BB2A2F80C34A2E6012A7FF467
:102D3000A0AEB0F8502002440C7802EB04129BB213
:102D4000A2F80C3495E630B45D0800EB420202F5BF
:102D5000806207E032F8044BA4B20C70240A4C7075
:102D60000231013D002DF5D113F0010F01D0138880
:102D70000B7030BC704710B5D0F8B842D0F8BC32F8
:102D80005BB194F80002FF2807D09B6894F80122F9
:102D900021469847FF2384F80032002010BD000030
:102DA000432303800048704708000020432303802A
:102DB000004870474C0000204323038000487047C0
:102DC000900000200A23038000487047D4000020B0
:102DD00038B50446D0F8B85205F0D2FCC5F80C025C
:102DE000D4F8B8324BB1D4F8BC32DB6805F50371C6
:102DF000D5F804029847002038BD0220FCE738B51A
:102E0000D0F8B822D0F8C052EAB101EB8104A30097
:102E10000344DB693BB105EB4115AD6BB3FBF5F446
:102E200005FB14331BB10020C2F8140238BD01EBBE
:102E30008102930003440024DC612346224605F00E
:102E40008FFC2046F2E70220F0E770B582B005461D
:102E50000C46D0F8B86200238DF80730ADF8043086
:102E60000B7813F0600227D0202A56D1CA883AB9CD
:102E7000D0F8BC329B6800224878984700204FE089
:102E800013F0800F0CD0D0F8BC329B6831466078CC
:102E90009847E2883146284600F0AEFD00203FE02A
:102EA0004B7886F800328B7986F80132CA88314631
:102EB00000F0B7FD002033E04B780A2B14D00B2B29
:102EC00021D01BB100F077FA022029E090F89C3263
:102ED000032B05D1022201A900F08EFD00201FE086
:102EE00000F069FA02201BE090F89C32032B06D117
:102EF00001220DF1070100F07FFD002010E000F03D
:102F00005AFA02200CE090F89C32032B01D10020E9
:102F100006E000F050FA022002E000F04CFA022035
:102F200002B070BD38B50446812105F0E6FB0025EE
:102F3000E5620121204605F0E0FBC4F86C518221D6
:102F4000204605F0DAFB2564D4F8B8324BB1D4F84A
:102F5000BC325B689847D4F8B80205F01BFCC4F893
:102F6000B852002038BD38B50446037CA3BB4FF4EB
:102F700000730222812105F0B5FB0125E5624FF4C3
:102F8000007302222946204605F0ACFBC4F86C51C0
:102F9000082303228221204605F0A4FB0123236499
:102FA0004FF4077005F0F2FB0546C4F8B80268B3A9
:102FB000D4F8BC321B6898470023C5F81432C5F812
:102FC0001832237CC3B14023D5F8042201212046C6
:102FD00005F0CEFB002038BD40230222812105F000
:102FE00081FB0125E562402302222946204605F0A7
:102FF00079FBC4F86C51CBE74FF40073D5F8042289
:103000000121204605F0B4FB0020E4E70120E2E7BF
:1030100019B1C0F8BC120020704702207047D0F8E8
:10302000B832C3F80812C3F8102200207047D0F855
:10303000B832C3F8041200207047D0F8B822A2B109
:1030400008B5D2F814320BB1012008BD0123C2F833
:103050001432D2F810320363B2F81032D2F80822D8
:10306000812105F07DFB0020EFE702207047D0F8BA
:10307000B8229AB108B5037C3BB14023D2F80422B0
:10308000012105F075FB002008BD4FF40073D2F854
:103090000422012105F06CFB0020F5E702207047B7
:1030A00098B108B50346D0F8B40210B10020C3F8B7
:1030B000B40209B1C3F8B0121846012380F89C325B
:1030C000027005F0C5FA002008BD0220704719B152
:1030D000C0F8B412002070470220704708B505F010
:1030E000F9FA002008BD08B5D0F8B43233B11B6836
:1030F000984708B9002008BD0220FCE70220FAE743
:1031000008B5D0F8B4325B689847002008BD38B5E0
:10311000044600F52A75284600F039F90123C4F861
:103120009432B4F8AE32C4F8983294F8A81201F090
:103130001F03012B0ED03BB1022B10D001F08001F8
:10314000204605F0E2FA03E02946204600F0CDFAD9
:10315000002038BD2946204600F0FBFAF8E7294652
:10316000204600F026FBF3E738B50446A1BB104625
:10317000D4F89432032B03D0052B24D0002037E061
:10318000D4F86031D4F8642193420DD99B1AC4F865
:1031900060319A4206D99AB20146204600F050FCAE
:1031A000002025E092B2F7E7D4F8B4321B692BB1C6
:1031B00094F89C22032A01D120469847204600F02B
:1031C00047FC002014E00025C4F89452294620460C
:1031D00005F09BFA28460BE00A46D0F8B4329B690A
:1031E0003BB190F89C12032905D111469847002065
:1031F00038BD0220FCE70220FAE710B5044600299A
:1032000053D11046D4F89432022B0CD0042B00D0AA
:103210001BB98021204605F078FA94F8A032012BE2
:103220003FD000204DE0236A626A93421DD8E169D5
:10323000B1FBF2F302FB13132BB98A4203D8D4F883
:10324000983299421FD3D4F8B432DB682BB194F88A
:103250009C22032A01D1204698478021204605F070
:1032600054FA204600F0FFFBD7E79A1A226292B286
:103270000146204600F0CDFB00231A4619462046A1
:1032800005F076FAC9E700221146204600F0C1FB9E
:103290000021C4F898120B460A46204605F068FA49
:1032A000BBE7002084F8A0020BE00A46D0F8B43255
:1032B0005B693BB190F89C12032905D111469847F0
:1032C000002010BD0220FCE70220FAE770B504469A
:1032D00040230022114605F005FA0125C4F8585193
:1032E0004026C4F86461334600228021204605F060
:1032F000F9F9A561666284F89C520023C4F89432FF
:103300006360C4F8A432D4F8B8322BB1D4F8B43224
:103310005B68002120469847002070BD01740020A2
:10332000704790F89C3280F89D32042380F89C32DC
:103330000020704790F89C32042B01D00020704789
:1033400090F89D3280F89C32F8E708B590F89C32EE
:10335000032B01D0002008BDD0F8B432DB69002B6C
:10336000F8D09847F6E7002302E00133DBB20130E2
:103370000278002AF9D11846704708B54B88012B0E
:1033800000D008BDC0F8A43200F062FBF9E70B786A
:1033900003704B7843708B78CA7803EB0223438029
:1033A0000B794A7903EB022383808B79CA7903EB8B
:1033B0000223C380704710B50446802105F0A5F9AB
:1033C0000021204605F0A1F910BD30B583B00546B7
:1033D0000C460023ADF806304A88130A013B062B41
:1033E00000F2A480DFE803F004182CA2A286930068
:1033F000D0F8B0321B680DF10601007C9847BDF88B
:1034000006201AB1E388002B40F09480E388002B5B
:1034100000F09A8003B030BD037C43B9D0F8B432D9
:103420009B6A0DF10600984702234370E7E7D0F846
:10343000B432DB6A0DF10600984702234370DEE7E1
:10344000D2B2052A52D8DFE802F003101D2A374411
:10345000D0F8B0325B6823B10DF10601007C9847CB
:10346000CDE72146FFF7A7FFD4E7D0F8B0329B683D
:1034700023B10DF10601007C9847C0E72146FFF714
:103480009AFFC7E7D0F8B032DB6823B10DF106012F
:10349000007C9847B3E72146FFF78DFFBAE7D0F8E5
:1034A000B0321B6923B10DF10601007C9847A6E7F5
:1034B0002146FFF780FFADE7D0F8B0325B6923B15A
:1034C0000DF10601007C984799E72146FFF773FF4D
:1034D000A0E7D0F8B0329B6923B10DF10601007C62
:1034E00098478CE72146FFF766FF93E72146FFF7F1
:1034F00062FF8FE7037C33B9D0F8B4325B6B0DF118
:10350000060098477BE72146FFF755FF82E7037CDB
:1035100043B9D0F8B4321B6B0DF10600984707236E
:1035200043706CE72146FFF746FF73E72146FFF73C
:1035300042FF6FE79A4228BF1A46ADF806200146BF
:10354000284600F059FA61E7284600F081FA61E761
:1035500038B504468B88F3B9CB88E3B94B887F2B09
:1035600019D803F07F0590F89C32032B0CD080F81B
:103570009E52294605F0ECF8204600F069FA35B174
:10358000022384F89C3209E0FFF715FF06E00123CF
:1035900084F89C3202E02046FFF70DFF38BD0000A2
:1035A00038B504460D468978284B197001290ED884
:1035B00090F89C32022B0ED0032B21D02946FFF726
:1035C000FAFE224B19782046FFF79AFD02E02946C1
:1035D000FFF7F1FE38BD81B14160032380F89C32D2
:1035E000FFF781FD022803D0204600F031FAF1E711
:1035F00029462046FFF7DFFEECE700F029FAE9E76D
:1036000089B1436899421DD0D9B2FFF779FD0F4BBC
:10361000197861602046FFF766FD02280DD020462C
:1036200000F016FAD6E7022380F89C324160FFF7DB
:1036300067FD204600F00CFACCE729462046FFF74C
:10364000BAFEC7E700F004FAC4E700BF1402002086
:1036500008B5CB88012B0BD190F89C329BB1022B83
:1036600009D9032B0FD10122011D00F0C5F901E09A
:10367000FFF7A1FE08BD0146002341F8083F0122E3
:1036800000F0BAF9F6E7FFF796FEF3E708B590F811
:103690009C32013B022B12D8CB88022B0CD1012388
:1036A000C360D0F8A4320BB10323C360022200F13F
:1036B0000C0100F0A1F908BDFFF77DFEFBE7FFF765
:1036C0007AFEF8E708B590F89C32013B022B09D846
:1036D0004B88012B00D008BD0023C0F8A43200F0B5
:1036E000B7F9F8E7FFF767FEF5E708B50B7803F0E1
:1036F0006003202B05D0402B03D043B1FFF75BFEC6
:1037000003E0D0F8B4329B689847002008BD4B789E
:10371000092B1BD8DFE803F011171A141A08051A31
:103720000E0BFFF752FEF0E7FFF712FFEDE7FFF792
:1037300037FFEAE7FFF78CFFE7E7FFF7A7FFE4E7CC
:10374000FFF71BFEE1E7FFF7BDFFDEE7FFF733FE04
:10375000DBE738B505460C460B7803F06003202BF9
:1037600006D0402B04D01BB1FFF725FE002038BD4A
:1037700095F89C32013B022B16D82379012B0ED8E9
:10378000D5F8B4329B68214628469847E388002B39
:10379000ECD10028EAD1284600F05AF9E6E72146A4
:1037A0002846FFF708FEE1E721462846FFF703FE1B
:1037B000DCE738B504468A880B7803F06003202BD9
:1037C00008D0D0B2402B05D05BB12046FFF7F3FD07
:1037D000002005E0D4F8B4329B68204698470020CA
:1037E00038BD202B05D1D4F8B4329B6820469847C9
:1037F000F6E74B78012B32D0002B5ED0032B40F044
:10380000D88094F89C32022B06D0032B16D0204689
:10381000FFF7D1FD0020E3E708B1802804D120465E
:10382000FFF7C9FD0020DBE70146204604F06DFFED
:103830008021204604F069FF0020D1E74B8823B99E
:1038400018B1802801D0CB8823B1204600F000F9C0
:103850000020C5E70146204604F057FFF5E794F83D
:103860009C32022B06D0032B16D02046FFF7A3FD77
:103870000020B5E708B1802804D12046FFF79BFD62
:103880000020ADE70146204604F03FFF802120469E
:1038900004F03BFF0020A3E74B88002B40F08E8014
:1038A00010F07F0F04D1204600F0D2F8002097E7F7
:1038B0000146204604F031FFF5E794F89C32022BD4
:1038C00006D0032B2AD02046FFF775FD002087E79E
:1038D00008B1802813D112F0800F15D100F07F00BD
:1038E00000EB8000830003F5A8712144043100251A
:1038F0000D600222204600F07FF8284670E720463F
:10390000FFF759FD00206BE700F07F0000EB80001F
:10391000830003F1100121440431E8E752B2002A88
:103920001FDB00F00F0303EB83039D002544D5F854
:10393000583123B3002A27DB00F07F0202EB82021A
:10394000930003F5A8752544043508B1802825D1D6
:1039500000232B6002222946204600F04DF800206B
:103960003EE700F00F0303EB83039D002544AB69A2
:10397000002BDFD12046FFF71EFD002030E7204658
:10398000FFF719FD00202BE700F07F0202EB820217
:10399000930003F1100525440435D6E7014620467F
:1039A00004F0C3FE10B101232B60D3E700232B608A
:1039B000D0E72046FFF7FFFC002011E700200FE7CB
:1039C000C8B170B50D4616460446FFF7CCFC013071
:1039D00040003080287003236B70022307E001341D
:1039E0005A1CD2B2E9540233DBB20021A954217827
:1039F0000029F4D170BD704710B513460222C0F8FB
:103A00009422C36103620A46002104F0A9FE00204B
:103A100010BD08B513460A46002104F0A1FE00209F
:103A200008BD10B513460322C0F89422C0F85C31DB
:103A3000C0F860310A46002104F09AFE002010BD53
:103A400008B513460A46002104F092FE002008BD86
:103A500008B50423C0F8943200231A46194604F02E
:103A60007FFE002008BD08B50523C0F8943200236E
:103A70001A46194604F07CFE002008BD0B88584009
:103A80005B080B8010F0010F04D083F4044383F033
:103A900008030B807047000008B5064B4FF6FF7215
:103AA0001A8201229A7600221A705A7005F0BCFA26
:103AB00008BD00BF9C04002020B1054B93F89D0079
:103AC000C0B27047034B93F89D00C0B2704700BF6F
:103AD000B804002058050020F8B50D46A04B1B88FF
:103AE000D3B19F4A538801339BB25380042B13D91F
:103AF000134600221A805A809A4B93F89E309B1AE4
:103B000018BF0123984A92F89E20002A3CD0022236
:103B10001343964A82F8B834012D37D0914C94F86B
:103B20009C305B00DBB200280CBF184643F001005C
:103B300084F89C007E282BD000F07F037F2B00F0C0
:103B4000C78094F89D30DBB300F03F033E2B37D0A5
:103B500010F0010F05D094F89A3063F07F0384F8D9
:103B60009A3094F89B300133DBB284F89B30072BFA
:103B700040F2EF80B4F89830962B00F2B980012B18
:103B800040F2D5800025D0E00022C1E7764CC6E7A0
:103B900094F89D30022B03D1B4F898200F2A10D846
:103BA000012384F89D30002384F89A3084F89B30F8
:103BB000A4F898304FF6FF732380284605F07CF870
:103BC000F8BD00231E461746911E8B4207DAE01807
:103BD000807810F0010F02D101339BB2F2E7731C21
:103BE00023449B78032B0AD0002384F89A3084F86E
:103BF0009B30A4F898304FF6FF732380E0E702363D
:103C00002644B378F02BEFD1214489782288D3431E
:103C1000DBB2994207D17B1E234499786FEA1223C5
:103C2000DBB2994203D0284605F046F8B8E70123F5
:103C300084F89E304A4B1B889A42B1D0484B1A8078
:103C4000284605F051F8494BA3F8B604B3F85822BA
:103C5000B3F85A329A420BD99B1A9BB203F25523FE
:103C60009BB2B4F89820023A9A4299DC00221AE0FA
:103C70009B1A9BB2033B9BB2F3E73C48B0F85862F7
:103C8000731C99B2A0F85812A3189B788355384B2F
:103C9000A3FB01639B094FF4167606FB1313A0F8F0
:103CA0005832013292B2B4F89830023B9A42E4DBC7
:103CB0002E4AB2F858124B1C9BB2FF2050544FF4BE
:103CC0001670B3FBF0F100FB1133A2F8583267E72E
:103CD000284604F0F1FF002384F89D3084F89A30E0
:103CE00084F89B30A4F898304FF6FF73238067E781
:103CF000002384F89D3084F89A3084F89B30A4F82F
:103D000098304FF6FF732380284604F0D5FF57E71D
:103D1000B4F89830023B234498782841214600F0BB
:103D20000100FFF7ABFE0135EDB2072DF0D90223FC
:103D300084F89D30B4F898305A1CA4F8982094F870
:103D40009A2023449A70002384F89A3084F89B3098
:103D500036E794F89A305B0884F89A3030E700BF71
:103D60001602002058050020B8040020FC050020A1
:103D7000B5814E1B10B5A24B5B785BB2082B19D0F6
:103D80009F4B9B7EDBB2032B00F00A819C4B9B7EFA
:103D9000DBB2042B00F00481994A147804F001048A
:103DA00013785B08137053785BB201335BB25370C6
:103DB000204610BD924B00225A709B7EDBB2012B35
:103DC0002DD08F4B9B7EDBB2022B3DD08C4B9B7E4C
:103DD000DBB2032B4BD08A4B9B7EDBB2042B75D01E
:103DE000874B9B7EDBB2052B00F08C80844B9B7E47
:103DF000DBB2062BC4D1834B0022A3F8B424804B42
:103E00005A8992B2DB899BB29A4280F0BC807C4A8C
:103E10007E231370538901339BB25381B0E7784BF3
:103E20005A8892B29B899BB29A4207D2744A7E23E7
:103E30001370538801339BB25380C2E7704B00224A
:103E40005A8002229A76BCE76D4B1B79DBB2032BBA
:103E500007D86B4A7E23137013790133DBB21371D9
:103E6000B4E7674B00221A7103229A76AEE7654BDE
:103E7000B3F8B4340A2B20D9614AD28892B2934263
:103E80001BD95F4BDA885F4B134493F85C32FF2BEE
:103E90000BD05B4AD1885B4B0B4493F85C321370B8
:103EA000D38801339BB2D38095E7554A0423937698
:103EB000D38801339BB2D3808DE70022514BA3F806
:103EC000B4244F4BDA8006229A7684E74C4B1B7A57
:103ED000DBB2012B08D94A4B4FF6FF721A8205223A
:103EE0009A7600221A727BE7454A138A9BB2117AAE
:103EF000C9000B41DB43DBB21370137A0133DBB231
:103F000013726DE73E4B1B79DBB2072B07D83C4A97
:103F10007E23137013790133DBB2137166E7384BDC
:103F200000221A7103229A76364BB3F8B4340A2B66
:103F300020D9334AD28892B293421BD9304BDA88C7
:103F4000304B134493F85C32FF2B0BD02C4AD188B2
:103F50002C4B0B4493F85C321370D38801339BB223
:103F6000D38043E7264A04239376D38801339BB258
:103F7000D3803BE70022234BA3F8B424204BDA8004
:103F800006229A7632E71E4B00225A819A764FF625
:103F9000FF7119825A721A705A7605F07DF8EFE6B1
:103FA000174B5B7ADBB2052B19D0154B1B7813F03E
:103FB000010F18D0124A537A0133DBB25372012435
:103FC0000F4B9B7EDBB2032B11D00D4A13785B089D
:103FD000137053785BB201335BB25370E8E6002490
:103FE000074B5C72E4E60024054B5C72E8E7044989
:103FF00011F8100B00F00100FFF740FDE5E700BFEE
:104000009C040020FC050020144B5B7EDBB2012BDE
:1040100022D0124B5B7EDBB2022B1DD0104BB3F8CB
:10402000B4340A2B04D80E4B0022A3F8B4247047F2
:1040300010B50C4B9C880C48A0FB04300B4B1C6843
:1040400004EBD0041421002000F050FA2044034B6C
:10405000586101225A7610BD704700BF9C040020B1
:10406000FC05002094040020CDCCCCCC80040020A2
:1040700008B5214B5B7E6BB11F4B5B7EDBB2022B25
:1040800008D01E4BB3F8B434092B04D81B4B0022C4
:10409000A3F8B42408BD04F005FE0028FAD1164B9D
:1040A0005A69174B1B689A42F4D204F0F5FD90B19F
:1040B000114B1B7EDBB2082B15D032210A2000F0F9
:1040C00015FA0F4B1B6803440B4A5361137E0133EF
:1040D000DBB21376DEE7084B02225A7600221A760C
:1040E000FFF7DAFCD6E7044B02225A7600221A7652
:1040F000FFF7D2FCCEE700BF9C040020FC050020A7
:104100008004002038B5144C4FF6FF712182134B08
:104110000022A3F85822A3F85A22A3F8B42483F863
:10412000B8240F4B19800F4B19800F4D2888FCF7CE
:10413000A9FD0E49FCF7B2FEFCF7FEFF80B2A0819C
:104140006888FCF79FFD0949FCF7A8FEFCF7F4FF1F
:1041500080B2E08138BD00BF9C040020FC05002037
:1041600058050020B8040020940400205C55D54078
:1041700000EB40129300764AD35C002B00F0E780FE
:1041800070B5D8B004469622002132A807F08AFE06
:104190000022134609E0591C6E48805C58AD2B4440
:1041A00003F8980C0132D2B28BB2062AF3D900225E
:1041B00009E0591C6848805C58AD2B4403F8980C02
:1041C0000132D2B28BB2052AF3D9644A1278520076
:1041D000D2B25D1CADB2603258A90B4403F8982CE2
:1041E00004EB44139A005A4B134493F87130F3B91B
:1041F0006B1E58AA134413F8982C42F0010203F8DE
:10420000982C6B1C9BB258AA2A44032102F8981CD4
:104210000235ADB258AA1344F02203F8982C0026B8
:1042200034E058A90844603200F8982C1AE00023C2
:104230000D2BDDD804EB44129100454A0A441A4480
:1042400092F871201AB9062B01D00D2BD0D1284637
:104250005200D2B258A9294401F8982C062BE0D07C
:104260000D2BDED00135ADB20133DBB2E0E7691CC6
:1042700004EB44139A00364B134433441B7B58AA77
:10428000154405F8983C0136F6B28DB204EB4412A1
:10429000930008332E4818440430FCF7C7FF8642C9
:1042A000E5D32F4BB3F8B464C6F51672AB1C9A4233
:1042B00043DD00230EE02A4AB2F8B414481CA2F8E9
:1042C000B40458A8184410F8980C0A4482F85C0208
:1042D0000133DBB29AB2AA42EDD3224B1B7873BBF7
:1042E0001F4DB5F8B4345A1CA5F8B4242B44FF2252
:1042F00083F85C22304601F045FAB5F8B414891B06
:1043000089B2013906F5167028446A4689B204302C
:1043100000F002F90021144801F06CFE204601F083
:10432000A1FE0021114801F065FE0021684601F060
:1043300061FE00210E4801F05DFE58B070BD0848D6
:10434000B0F8B41400F5177000F0BAF9C8E7704778
:10435000940E00201C0100202401002045020020B2
:10436000FC0500203C02002014C1000898D0000881
:1043700054C9000810B5002419E01D4A52F8210064
:104380001C4A1268904232D81A4A1268134401EB50
:1043900041129000184A0244C2F88030144B0022A7
:1043A00043F821202046FFF7E3FE0134E4B2072C56
:1043B0001DD8214604EB441293000F4AD35C002B16
:1043C000F3D004EB44139A000B4B13445B68002BAF
:1043D000EBD004EB44129000074A0244D2F880204C
:1043E000044800688242C8D9002ADED1C5E710BD62
:1043F0001C02002080040020940E00200023072BC4
:104400001CD830B40E485A01D418A1000144896860
:104410000C4C2468642505FB014101F6B8310A4CB7
:1044200044F823101A44910008440022C0F8802068
:104430000133DBB2072BE5D930BC7047704700BFB2
:10444000940E0020800400201C0200202DE9F84F6B
:1044500082460D4679B91AF80530303BDBB2092B9C
:1044600009D80135EDB2632DF5D900260027304675
:104470003946BDE8F88F6C1E24B20026002726E0DE
:104480001AF804B0ABF1300B681E001BFBF7B2FF4B
:1044900002460B460020144905F08AFC80468946F6
:1044A0005846FBF7A7FF42464B46FCF70DF88046FF
:1044B000894630463946FBF7D9FF42464B46FBF763
:1044C0004DFEFCF759FE06460F46013C24B2002C77
:1044D000CDDB002CD4D11AF804302D2BD0D176426C
:1044E00067EB4707F1E700BF0000244038B5814281
:1044F00005DB091A0DB204462DB9204638BD401A15
:1045000005B20C46F8E707F07BFD90FBF5F105FBE3
:10451000110121440CB2F0E7F0B4002301E00133B3
:10452000DBB2052B07D8DC1D045D6408202CF6D017
:1045300014700132F3E7437BC3F3430393B1561C7A
:104540002D241470092B02D9961C31245470721C2E
:10455000424CA4FB0354E408A5002C4465005B1BFB
:1045600030333370551C3E231370002301E00133B8
:10457000DBB2052B06D8C25C5208202AF7D02A707D
:104580000135F4E78379C3F3430393B16E1C2D2205
:104590002A70092B02D9AE1C31226A70751C2F4A71
:1045A000A2FB0342D2089400224454001B1B303368
:1045B0003370437B13F0010F3ED10E2233E0013301
:1045C000DBB2052B07D8D418045D6408202CF6D084
:1045D0002C700135F3E7971DC35DC3F34303B3B1FB
:1045E00005F1010C2D242C70092B03D905F1020CC7
:1045F00031246C700CF10105184CA4FB0364E40831
:10460000A600344466009B1B30338CF80030C3573F
:10461000002B0DDB073292B2382A0ED8531EC35C32
:1046200013F0010F09D12C232B7001350023C8E7AB
:104630002A232B700135EDE70E226B1C3A242C70D7
:10464000023292B28A4205D2845C1C70013292B26C
:104650000133F7E700221A70F0BC7047CDCCCCCC08
:104660002DE9D00316461F46C0434FF000084FF017
:10467000000918E052080133DBB2072B0FD882EA99
:10468000000414F0010F4FEA5000F3D080F06D40A9
:1046900080F4380080F4034080F02000EAE718F14D
:1046A000010849F10009B94508BFB04504D201EB42
:1046B00008031A780023E0E7C043BDE8D003704741
:1046C0002DE9F04182B007460E460025DFF89480C0
:1046D00012E0395D404605F017F80134A4B2B44247
:1046E000F7D3C021404605F00FF8404604F0F0FF34
:1046F0000135EDB2DFF87080012D0DD898F8043245
:10470000002BF5D1C021404604F0FEFF00214046B9
:1047100004F0FAFF0024E2E7114B1B7813B102B05A
:10472000BDE8F081C0238DF8043000248DF80540E9
:10473000012101A803F0F0FE01210DF1050003F0B5
:10474000EBFE05E00121381903F0E6FE0134A4B2C6
:10475000B442F7D3012101A803F0DEFEDFE700BF7A
:1047600085040020840C0020B41200200F4A136935
:1047700043F00103136100F1006000F57040018017
:104780000A4BDB6813F0010FFAD1084BDB6813F01A
:10479000200F05D0054AD36843F02003D36070474B
:1047A000024A136923F0010313617047002002409D
:1047B000F8B507460D46164600240BE0600015F8D4
:1047C0001430421CA95C43EA01213844FFF7CEFFB4
:1047D0000134A4B2B4EB560FF0D316F0010F00D1A0
:1047E000F8BD15F8141007EB4400FFF7BFFFF7E71B
:1047F00000F1006000F57040008870472DE9F84333
:1048000081460F46904600240EE0650005EB090640
:104810003046FFF7EDFF07F81400701CFFF7E8FFC4
:10482000013578550134A4B2B4EB580FEDD318F02C
:10483000010F01D1BDE8F88309EB4400FFF7D8FF71
:1048400007F81400F6E700001D4B1E4A5A6002F1FB
:1048500088325A601A4BDB6813F0010FFAD1184AFC
:10486000136943F0020313610022012A21D802F5E3
:1048700000333C339B0212494B610B6943F0400308
:104880000B610F4BDB6813F0010FFAD10C4BDB68A7
:1048900013F0200F07D00A49CB6843F02003CB6008
:1048A0000132D2B2E1E7064A136923F00203136131
:1048B0007047034A136923F002031361704700BF76
:1048C000002002402301674510B5FFF7BDFF062217
:1048D0003E490220FFF76CFF3D4B19780820FFF797
:1048E00045FF06223B4940F2BA40FFF761FF3A4CD0
:1048F00021880A20FFF73AFF61880C20FFF736FF76
:10490000A1880E20FFF732FF032234491020FFF761
:104910004FFF032232491420FFF74AFF314A137830
:10492000003318BF012392F8842052B302221343AC
:104930002C4A92F8082132B304221343294A92F8F0
:104940008C2112B308221343264A92F81022F2B1A6
:1049500010210B43234A92F89422D2B120210B4319
:10496000204A92F81823B2B140210B431D4A92F815
:104970009C2392B1802119431820FFF7F7FE0024F1
:104980001FE00022D3E70022D7E70022DBE7002167
:10499000DFE70021E3E70021E7E70021EBE704F18F
:1049A0000D0004EB44139A000E4B134459680E4B50
:1049B000A3FB0131C1F3CF114000FFF7D7FE013453
:1049C000E4B2072CEBD9002422E000BF2401002030
:1049D000450200201C01002094040020880C0020C7
:1049E000B8120020940E0020F119760504F115008C
:1049F00004EB44139A00AD4B13449968AC4BA3FBF2
:104A00000131C1F34F114000FFF7B0FE0134E4B2B1
:104A1000072CEBD9A74C642221463A20FFF7C8FEA9
:104A2000642204F184019E20FFF7C2FE642204F593
:104A300084714FF48170FFF7BBFE642204F5C671E8
:104A40004FF4B370FFF7B4FE642204F504714FF421
:104A5000E570FFF7ADFE642204F5257140F22E20CB
:104A6000FFF7A6FE642204F5467140F29220FFF79C
:104A70009FFE642204F5677140F2F620FFF798FE6E
:104A80000E2204F1650140F25A30FFF791FE0E222A
:104A900004F1E9014FF45A70FFF78AFE0E2204F286
:104AA0006D1140F27630FFF783FE0E2204F2F11111
:104AB0004FF46170FFF77CFE0E2204F2752140F284
:104AC0009230FFF775FE0E2204F2F9214FF4687060
:104AD000FFF76EFE0E2204F27D3140F2AE30FFF79A
:104AE00067FE0E2204F201414FF46F70FFF760FE83
:104AF000714C94F83E1001F0010140F2CA30FFF70A
:104B000035FE94F83D104FF47370FFF72FFE94F8C4
:104B10003F1094F8403043EA012140F2CE30FFF7D5
:104B200025FE052221464FF47470FFF741FE052251
:104B3000A11D40F2D630FFF73BFE052204F10C0127
:104B40004FF47770FFF734FE052204F1120140F2B2
:104B5000E230FFF72DFE062204F118014FF47A70BF
:104B6000FFF726FE062204F11E014FF47C70FFF7CA
:104B70001FFE062204F124014FF47E70FFF718FE99
:104B8000062204F12A014FF48060FFF711FE94F829
:104B9000301040F2AE40FFF7E9FD94F831104FF4C9
:104BA0009660FFF7E3FD94F8321040F2B240FFF751
:104BB000DDFD94F8331040F2B440FFF7D7FD94F8D0
:104BC00034104FF48160FFF7D1FD94F8351040F2B6
:104BD0000A40FFF7CBFD94F8361040F20C40FFF787
:104BE000C5FD94F8371040F20E40FFF7BFFD94F872
:104BF00038104FF48260FFF7B9FD94F8391040F295
:104C00001240FFF7B3FD94F83A1040F21440FFF75A
:104C1000ADFD94F83B1040F21640FFF7A7FD94F865
:104C20003C104FF48360FFF7A1FD94F8411040F26F
:104C30001A40FFF79BFD94F8CE1040F21C40FFF79E
:104C400095FD94F8CF1001F0010140F2AA40FFF762
:104C50008DFD8C2204F1420140F21E40FFF7A8FDB9
:104C6000164B197840F2AC40FFF780FD144B1B78CF
:104C700003F00101C3F3400341EA430140F2B640AF
:104C8000FFF774FD0F4B19784FF49760FFF76EFD37
:104C90006B210020FFF76AFD0B4B1A6922F001021D
:104CA0001A611A6942F080021A6110BD940E002048
:104CB00089888888A00E0020B40B002044020020C0
:104CC000F80500203C0200200020024030B583B0EF
:104CD0000020FFF78DFD6B2802D0002003B030BD0F
:104CE0000622C5490220FFF789FD0820FFF780FD55
:104CF000C24B18700622694640F2BA40FFF77EFDAB
:104D00009DF8002002F17E03DBB2322B08D812F0AE
:104D1000010F05D1BA4B00981860BDF804209A80A5
:104D20000A20FFF765FDB74C20800C20FFF760FDDF
:104D300060800E20FFF75CFDA0800024B24941F89E
:104D4000044FB24D45F8044F03221020FFF756FDE3
:104D5000032229461420FFF751FD1820FFF748FDD4
:104D6000C0B200F00102AA4B1A70C0F3400283F8EF
:104D70008420C0F3800283F80821C0F3C00283F8C6
:104D80008C21C0F3001283F81022C0F3401283F884
:104D90009422C0F3801283F81823C00983F89C037F
:104DA00010E004F10D004000FFF722FD41F27073A6
:104DB00003FB00F004EB4412954B03EB82035860B5
:104DC0000134E4B2072CECD900240FE004F1150003
:104DD0004000FFF70DFDC0EB0010800004EB441213
:104DE0008B4B03EB820398600134E4B2072CEDD9BE
:104DF00000240EE0642202FB04F004EB441189005D
:104E00000831834B194404313A30FFF7F7FC013481
:104E1000E4B2072CEED9002410E0C4EBC40040003B
:104E200004EB441189007031794B19440E22013191
:104E300000F25A30FFF7E2FC0134E4B2072CECD95F
:104E400040F2CA30FFF7D4FC724C94F83E3060F365
:104E5000000384F83E304FF47370FFF7C9FC84F808
:104E60003D0040F2CE30FFF7C3FCC0F30F2384F8BF
:104E70003F3084F84000052221464FF47470FFF75C
:104E8000BDFC0522A11D40F2D630FFF7B7FC05227C
:104E900004F10C014FF47770FFF7B0FC052204F128
:104EA000120140F2E230FFF7A9FC062204F11801DA
:104EB0004FF47A70FFF7A2FC062204F11E014FF4B2
:104EC0007C70FFF79BFC062204F124014FF47E70F6
:104ED000FFF794FC062204F12A014FF48060FFF7EB
:104EE0008DFC40F2AE40FFF783FC84F830004FF4B5
:104EF0009660FFF77DFC84F8310040F2B240FFF786
:104F000077FC84F8320040F2B440FFF771FC84F87B
:104F100033004FF48160FFF76BFC84F8340040F2FB
:104F20000A40FFF765FC84F8350040F20C40FFF7BB
:104F30005FFC84F8360040F20E40FFF759FC84F81D
:104F400037004FF48260FFF753FC84F8380040F2DA
:104F50001240FFF74DFC84F8390040F21440FFF78F
:104F600047FC84F83A0040F21640FFF741FC84F811
:104F70003B004FF48360FFF73BFC84F83C0040F2B9
:104F80001A40FFF735FC84F8410040F21C40FFF75F
:104F90002FFC84F8CE0040F2AA40FFF729FC94F8D9
:104FA000CF3060F3000384F8CF308C2204F142014B
:104FB00040F21E40FFF722FC40F2AC40FFF718FC25
:104FC000154B187040F2B640FFF712FC134A1378E5
:104FD00060F30003C0F3400060F3410313704FF42B
:104FE0009760FFF705FC012814BF002001200C4B3F
:104FF0001870012072E600BF240100204502002045
:105000001C01002094040020840C0020B412002015
:10501000940E0020B40B002044020020F80500206C
:105020003C02002030B400231D4601E00133DBB216
:10503000052B0ED8C1EBC1040E4A22441A4492F843
:105040004220FF2AF2D0C45CB2EB540FEED001250F
:10505000ECE7C1EBC101074B194491F84820FF2A46
:1050600004D08379603B934200D00125284630BCB0
:10507000704700BFB40B002038B5154B93F8CE3005
:1050800043FA01F111F0010F0CD005460024132C56
:1050900013D821462846FFF7C5FF034628B101343F
:1050A000E4B2F4E70023184638BD094A92F8CF204D
:1050B00012F0010FF7D10123F5E7054B93F8CF303C
:1050C00013F0010F01D00123EDE70023EBE700BF50
:1050D000B40B00200023052B18D810B51C460C4A31
:1050E00052F83320824205D00133DBB2052BF5D9CB
:1050F000002010BD064B002143F8341003EBC4041C
:105100006160044800F076FF0120F2E7002070475C
:10511000481800208CC100082DE9F04F83B00646E6
:105120008846924601939DF830709DF834909DF822
:1051300038B0072F06D8AB4B93F83F303B4113F004
:10514000010F43D1962006F09DFE0546002800F091
:1051500042810024072F06D83946F01DFFF78CFF47
:10516000002840F0388108F10601735C5B08303B91
:10517000D8B2072F16D89B4B93F83F303B4113F022
:10518000010F06D1974B93F840303B4113F0010FCC
:1051900008D0B8F10E0F40F01E81032F02D85845F9
:1051A00040F01981B9F1000F25D10023434580F06B
:1051B0008280F25CEA5401339BB2952BF6D9002D24
:1051C00000F00981284606F065FE04E10024052C64
:1051D00006D8854B53F834301BB10134E4B2F6E7FE
:1051E00000240AF10703962B00F3F58096257F4BE8
:1051F00005FB0435AEE7002353450CD2F25CEA54BC
:1052000001339BB2952BF7D9002D00F0E48028469E
:1052100006F040FEDFE0082F06D0724A92F83C20EC
:105220003A4112F0010F44D16A5C803A6A54072F68
:1052300008D86C4A92F83F2042FA07F717F0010F9E
:1052400040F082806A4AB2F8B444C4F516719A1CE0
:10525000914240F3BD80674802786749A1FB026133
:10526000490901EB8101CE00921BD2B26349019E34
:1052700041F83260624E366801EBC2014E60013285
:10528000027000227BE008EB02005E4EB65C2E54FA
:105290000132D2B2052AF6D96A5C02F001006854E4
:1052A000594A12785200D2B2203A52B202436A549A
:1052B000BDE70022EEE74B4A92F83C203A4112F05B
:1052C000010F08D1584501D000221BE0B8F10E0FA4
:1052D00001D0002216E0B9F1050F0AD85A1C49493D
:1052E00011F80910E95409F101095FFA89F993B23B
:1052F000F1E7454A12785200D2B2591C203AEA54DA
:105300008BB207220AEB02018B420CDA991A715C0C
:10531000E95401339BB2952BF4D9002D5BD028467C
:1053200006F0B8FD57E0904408F1060815F808208B
:10533000023AD2B205F8082012F01E0F7FF477AFC0
:10534000803A05F8082072E70021E954264B019ABB
:1053500043F834202A4A126803EBC40462602B48E5
:1053600000F048FE37E02249B1F8B404461CA1F829
:10537000B464AE5C014481F85C62013292B2934243
:10538000F1D81B4BB3F8B4144A1CA3F8B4240B4453
:10539000FF2283F85C221E4B1B78FBB91448B0F83F
:1053A000B414091B89B2013904F5167420442A4645
:1053B00089B20430FFF7B0F80021164800F01AFE59
:1053C0000021284600F016FE0021134800F012FECE
:1053D000284606F05FFD03B0BDE8F08F0F48FFF7E9
:1053E0006FF9DBE7B40B002048180020C41400203C
:1053F000FC05002046020020CDCCCCCC7818002043
:10540000800400202401002045020020D8C10008AB
:105410003C02002008C2000854C9000858080020B7
:105420003C4B93F83F30002B72D0F0B5B3B0002462
:1054300043E03949B1F8B4243848962707FB0507FB
:1054400017F803C08F1887F85CC20132A1F8B424A2
:105450000133DBB27345ECD32F4BB3F8B4145A18B5
:10546000FF2082F85C024A1CA3F8B4242C4B1B7862
:10547000002B47D12848B0F8B414891B89B20139F0
:1054800006F5167630446A4689B20430FFF744F8D0
:105490000021244800F0AEFD0021684600F0AAFD7E
:1054A0000021214800F0A6FD204B002243F83520C2
:1054B00003EBC5056A600134E4B2052C26D8254605
:1054C0001A4B53F83430002BF5D0194B1B68174A90
:1054D00002EBC40252689B1AB3F5FA7FEBD996200F
:1054E0000E4B00FB0430FBF7A1FE5FFA80FE0EF1CD
:1054F0000202094BB3F8B464C6F516739A4205DC90
:105500000023A7E70B48FFF7DBF8B3E733B0F0BDA4
:10551000704700BFB40B0020FC050020C41400201D
:105520003C02002024C2000854C90008481800208A
:1055300080040020580800202DE9F04F87B00D248A
:10554000035D13F0010F06D10734A4B2962CF7D9EE
:1055500007B0BDE8F08F0F46049106460E220023E7
:1055600001464FF0FF30FFF77BF8611C3A1B013A10
:10557000D3173144FFF774F880467D4B93F83F30E2
:105580000BB9002306E0FFF7A5FD0028F9D0DFE7FF
:105590000133DBB2272B14D8764A52F83320424528
:1055A000F6D1754A1168734A02EBC3025268891A30
:1055B0006F4A92F84100642202FB00F29142E7D860
:1055C000C6E70D2CC4D03357002B04DB0D2C02D0C2
:1055D000073CA4B2F7E70134A4B233199B795B0806
:1055E0000593A3F1300B5FFA8BFB0023184601E013
:1055F0000133DBB2052B07D8E218B15C5F4AD25CFD
:105600009142F5D00120F3E75D4B1B785B4501D05B
:10561000002128E008B1002125E0002302930123A6
:105620000193082300934346049A21463046FFF72E
:1056300073FD8DE70132D2B2052A0CD8A318F05CB5
:105640000B1D03EB43035F00494B3B449B5C9842BB
:10565000F0D00125EEE7464B0B4493F830305B4524
:1056600006D00131C9B2032912D800221546E3E75A
:10567000002DF6D100230293012301930B1DDBB211
:1056800000934346049A21463046FFF745FD5FE705
:10569000002741E00135EDB2B94607EB4702530060
:1056A00033481844FBF7C2FD85420CD26319F15C04
:1056B00007EB47035A002E4B13445B5D9942E9D038
:1056C0004FF0010AE6E7BAF1000F23D12544735DDC
:1056D0005B08303BDBB2059A313AD2B2062A3FF67C
:1056E00037AF002B3FF434AF072B3FF631AF9B456C
:1056F0003FF62EAF1E4A3A4492F834209A421CD309
:105700005A451AD31A4A92F83D2042FA07F919F07D
:10571000010F07D10137FFB2032F3FF619AF002564
:10572000AA46B9E702930023019300974346049ADF
:1057300021463046FFF7F0FCECE70D4A4A4492F868
:105740003820002AE6D09A42E4D8094A92F83D204F
:1057500042FA09F919F0010FDCD0029301230193F9
:1057600000974346049A21463046FFF7D5FCD1E71F
:10577000B40B0020781800208004002024010020B1
:105780004502002010B500F516701F4901440E2295
:10579000002304314FF0FF30FEF762FF0D2401E0DB
:1057A0000134A4B2184B234493F85C3213F0010F78
:1057B000F6D00134A4B20AE00134A4B201F51671A6
:1057C000114B1944012200230431FEF749FF214601
:1057D0000D4B234493F85C32FF2BEDD10B490B7832
:1057E0000B4AA2FB0342520902EB8202D4001B1BAC
:1057F000DBB2084A42F833000748006802EBC302F4
:10580000506001330B7010BDFC05002046020020E3
:10581000CDCCCCCC781800208004002084B00F4B75
:105820009A6942F020029A619A6902F0200201927C
:10583000019A9A6942F004029A619A6902F004029C
:105840000292029A9A6942F008029A619B6903F0F7
:1058500008030393039B04B0704700BF001002408D
:1058600030B5D5B0544B93F8B844002583F8B854FC
:10587000B3F85A32504AB2F858229A4215D04E49DB
:10588000C95CFF2911D05A1C92B2691C4A48C05CFD
:1058900001AB5855494BA3FB02039B094FF416700B
:1058A00000FB13239BB28DB2E4E7434BA3F85A22CB
:1058B00000239D4207D901AAD25C12F0010F02D148
:1058C00001339BB2F5E7294601A8FEF7F9FE3C4BF0
:1058D0001B78022B09D03B4B93F80432022B04D0E7
:1058E000394B93F80432022B58D127AA294601A834
:1058F000FEF712FE304AB2F8B6343449A1FB031366
:105900005B08A2F8B634642B1AD82B4BB3F8B63424
:10591000092B1AD900212E4800F06CFB14F0010F5E
:1059200018D046238DF8003014F0020F1AD0294BFE
:105930001B7813F0020F11D044238DF8013014E0CE
:105940000021254800F056FBDFE70021234800F046
:1059500051FBDFE75F238DF80030E5E750238DF83A
:10596000013002E05F238DF801300221684600F02B
:1059700041FB00211A4800F03DFB0F4BB3F8B60481
:1059800000F070FB0021174800F034FB002127A82D
:1059900000F030FB0021144800F02CFB134B93F86F
:1059A0003E3013F0010F01D155B030BD294601A89A
:1059B000FFF7C2FDF8E700BFFC050020B5814E1BD4
:1059C00085040020840C0020B4120020398EE338B6
:1059D000F0C20008F805002054C20008A0C2000868
:1059E0000CC3000820C3000854C90008B40B0020F1
:1059F00030B595B000240C940D940F941094059438
:105A000006940794089409940194029403940494CE
:105A100001220A924FF480330B930E9202251195C6
:105A200012934FF4E01313930AA8FCF715F90F2310
:105A30000593069507944FF48063089309942946CB
:105A400005A8FCF749FB10230193049401A8FCF777
:105A5000F7FB15B030BD000030B583B0FBF712FC8A
:105A6000FFF7C6FF03F00EFD8E4A936943F004036F
:105A700093618D4B5A6842F400325A605A6822F49E
:105A800040225A604FF080521A61884B1B680A33DB
:105A9000864A12689A42FBD3834B5A6822F44032FA
:105AA0005A605A6842F480225A60FFF7B7FE02F04B
:105AB000C3FC04F0C5F87E4D4FF416536B607D4C6B
:105AC00063607D4A137803F0FE036FF341031370A4
:105AD0007A4B4FF496729A801A801E225A80784B25
